{
  "contractName": "ProductRegistry",
  "abi": [
    {
      "anonymous": false,
      "inputs": [
        {
          "indexed": false,
          "internalType": "string",
          "name": "internalPO",
          "type": "string"
        },
        {
          "indexed": false,
          "internalType": "string",
          "name": "productName",
          "type": "string"
        }
      ],
      "name": "ProductCreated",
      "type": "event"
    },
    {
      "inputs": [
        {
          "internalType": "string",
          "name": "_externalPO",
          "type": "string"
        },
        {
          "internalType": "string",
          "name": "_internalPO",
          "type": "string"
        },
        {
          "internalType": "string",
          "name": "_productName",
          "type": "string"
        },
        {
          "internalType": "string",
          "name": "_companyName",
          "type": "string"
        },
        {
          "internalType": "string",
          "name": "_fileHash",
          "type": "string"
        }
      ],
      "name": "createProduct",
      "outputs": [],
      "stateMutability": "nonpayable",
      "type": "function"
    },
    {
      "inputs": [
        {
          "internalType": "string",
          "name": "_internalPO",
          "type": "string"
        }
      ],
      "name": "getProduct",
      "outputs": [
        {
          "internalType": "string",
          "name": "",
          "type": "string"
        },
        {
          "internalType": "string",
          "name": "",
          "type": "string"
        },
        {
          "internalType": "string",
          "name": "",
          "type": "string"
        },
        {
          "internalType": "string",
          "name": "",
          "type": "string"
        },
        {
          "internalType": "string",
          "name": "",
          "type": "string"
        }
      ],
      "stateMutability": "view",
      "type": "function",
      "constant": true
    }
  ],
  "bytecode": "0x6080604052348015600f57600080fd5b50610a6c8061001f6000396000f3fe608060405234801561001057600080fd5b50600436106100365760003560e01c80635b0769d61461003b57806368111cce14610050575b600080fd5b61004e610049366004610697565b61007d565b005b61006361005e366004610783565b61023f565b604051610074959493929190610810565b60405180910390f35b60008460405161008d919061087d565b908152602001604051809103902060020180546100a990610899565b1590506100f65760405162461bcd60e51b815260206004820152601660248201527550726f6475637420616c72656164792065786973747360501b60448201526064015b60405180910390fd5b6040518060c00160405280600180549050600161011391906108d3565b815260200186815260200185815260200184815260200183815260200182815250600085604051610144919061087d565b908152604051602091819003820190208251815590820151600182019061016b9082610949565b50604082015160028201906101809082610949565b50606082015160038201906101959082610949565b50608082015160048201906101aa9082610949565b5060a082015160058201906101bf9082610949565b50506001805480820182556000919091527fb10e2d527612073b26eecdfd717e6a320cf44b4afac2b0732d9fcbe2b7fa0cf60190506101fe8582610949565b507fb20e06f53a8ce7007cf0d42ab0685b54f920b89e46d4223106b75e29a8be775b8484604051610230929190610a08565b60405180910390a15050505050565b606080606080606060008087604051610258919061087d565b9081526020016040518091039020600201805461027490610899565b9050116102b75760405162461bcd60e51b8152602060048201526011602482015270141c9bd91d58dd081b9bdd08199bdd5b99607a1b60448201526064016100ed565b600080876040516102c8919061087d565b90815260200160405180910390206040518060c0016040529081600082015481526020016001820180546102fb90610899565b80601f016020809104026020016040519081016040528092919081815260200182805461032790610899565b80156103745780601f1061034957610100808354040283529160200191610374565b820191906000526020600020905b81548152906001019060200180831161035757829003601f168201915b5050505050815260200160028201805461038d90610899565b80601f01602080910402602001604051908101604052809291908181526020018280546103b990610899565b80156104065780601f106103db57610100808354040283529160200191610406565b820191906000526020600020905b8154815290600101906020018083116103e957829003601f168201915b5050505050815260200160038201805461041f90610899565b80601f016020809104026020016040519081016040528092919081815260200182805461044b90610899565b80156104985780601f1061046d57610100808354040283529160200191610498565b820191906000526020600020905b81548152906001019060200180831161047b57829003601f168201915b505050505081526020016004820180546104b190610899565b80601f01602080910402602001604051908101604052809291908181526020018280546104dd90610899565b801561052a5780601f106104ff5761010080835404028352916020019161052a565b820191906000526020600020905b81548152906001019060200180831161050d57829003601f168201915b5050505050815260200160058201805461054390610899565b80601f016020809104026020016040519081016040528092919081815260200182805461056f90610899565b80156105bc5780601f10610591576101008083540402835291602001916105bc565b820191906000526020600020905b81548152906001019060200180831161059f57829003601f168201915b50505091909252505050602081015160408201516060830151608084015160a090940151929b919a509850919650945092505050565b634e487b7160e01b600052604160045260246000fd5b600082601f83011261061957600080fd5b813567ffffffffffffffff811115610633576106336105f2565b604051601f8201601f19908116603f0116810167ffffffffffffffff81118282101715610662576106626105f2565b60405281815283820160200185101561067a57600080fd5b816020850160208301376000918101602001919091529392505050565b600080600080600060a086880312156106af57600080fd5b853567ffffffffffffffff8111156106c657600080fd5b6106d288828901610608565b955050602086013567ffffffffffffffff8111156106ef57600080fd5b6106fb88828901610608565b945050604086013567ffffffffffffffff81111561071857600080fd5b61072488828901610608565b935050606086013567ffffffffffffffff81111561074157600080fd5b61074d88828901610608565b925050608086013567ffffffffffffffff81111561076a57600080fd5b61077688828901610608565b9150509295509295909350565b60006020828403121561079557600080fd5b813567ffffffffffffffff8111156107ac57600080fd5b6107b884828501610608565b949350505050565b60005b838110156107db5781810151838201526020016107c3565b50506000910152565b600081518084526107fc8160208601602086016107c0565b601f01601f19169290920160200192915050565b60a08152600061082360a08301886107e4565b828103602084015261083581886107e4565b9050828103604084015261084981876107e4565b9050828103606084015261085d81866107e4565b9050828103608084015261087181856107e4565b98975050505050505050565b6000825161088f8184602087016107c0565b9190910192915050565b600181811c908216806108ad57607f821691505b6020821081036108cd57634e487b7160e01b600052602260045260246000fd5b50919050565b808201808211156108f457634e487b7160e01b600052601160045260246000fd5b92915050565b601f82111561094457806000526020600020601f840160051c810160208510156109215750805b601f840160051c820191505b81811015610941576000815560010161092d565b50505b505050565b815167ffffffffffffffff811115610963576109636105f2565b610977816109718454610899565b846108fa565b6020601f8211600181146109ab57600083156109935750848201515b600019600385901b1c1916600184901b178455610941565b600084815260208120601f198516915b828110156109db57878501518255602094850194600190920191016109bb565b50848210156109f95786840151600019600387901b60f8161c191681555b50505050600190811b01905550565b604081526000610a1b60408301856107e4565b8281036020840152610a2d81856107e4565b9594505050505056fea264697066735822122025ae53037b19406e96b2829372def941ab53f176a36f1e8f41bfb270db5453c364736f6c634300081c0033",
  "immutableReferences": {},
  "source": "// SPDX-License-Identifier: MIT\r\npragma solidity ^0.8.28;\r\n\r\ncontract ProductRegistry {\r\n    struct Product {\r\n        uint256 id;\r\n        string externalPO;\r\n        string internalPO;\r\n        string productName;\r\n        string companyName;\r\n        string fileHash;\r\n    }\r\n\r\n    mapping(string => Product) private products;\r\n    string[] private internalPOList;\r\n    \r\n    event ProductCreated(string internalPO, string productName);\r\n\r\n    function createProduct(\r\n        string memory _externalPO,\r\n        string memory _internalPO,\r\n        string memory _productName,\r\n        string memory _companyName,\r\n        string memory _fileHash\r\n    ) public {\r\n        require(bytes(products[_internalPO].internalPO).length == 0, \"Product already exists\");\r\n\r\n        products[_internalPO] = Product(\r\n            internalPOList.length + 1,\r\n            _externalPO,\r\n            _internalPO,\r\n            _productName,\r\n            _companyName,\r\n            _fileHash\r\n        );\r\n\r\n        internalPOList.push(_internalPO);\r\n        emit ProductCreated(_internalPO, _productName);\r\n    }\r\n\r\n    function getProduct(string memory _internalPO) public view returns (\r\n        string memory, string memory, string memory, string memory, string memory\r\n    ) {\r\n        require(bytes(products[_internalPO].internalPO).length > 0, \"Product not found\");\r\n\r\n        Product memory p = products[_internalPO];\r\n        return (p.externalPO, p.internalPO, p.productName, p.companyName, p.fileHash);\r\n    }\r\n}\r\n",
  "sourcePath": "C:\\Users\\sim\\Documents\\Ip_tracking\\Innovation_Practices\\react-app\\contracts\\ProductRegistry.sol",
  "compiler": {
    "name": "solc",
    "version": "0.8.28+commit.7893614a.Emscripten.clang"
  },
  "schemaVersion": "3.4.16",
  "updatedAt": "2025-03-22T08:04:08.480Z",
  "networkType": "ethereum",
  "devdoc": {
    "kind": "dev",
    "methods": {},
    "version": 1
  },
  "userdoc": {
    "kind": "user",
    "methods": {},
    "version": 1
  }
}