{
  "contractName": "ProductRegistry",
  "abi": [
    {
      "anonymous": false,
      "inputs": [
        {
          "indexed": true,
          "internalType": "string",
          "name": "internalPO",
          "type": "string"
        },
        {
          "indexed": false,
          "internalType": "string",
          "name": "externalPO",
          "type": "string"
        },
        {
          "indexed": false,
          "internalType": "string",
          "name": "productName",
          "type": "string"
        },
        {
          "indexed": false,
          "internalType": "string",
          "name": "companyName",
          "type": "string"
        },
        {
          "indexed": false,
          "internalType": "string",
          "name": "fileHash",
          "type": "string"
        },
        {
          "indexed": false,
          "internalType": "string[]",
          "name": "units",
          "type": "string[]"
        },
        {
          "indexed": false,
          "internalType": "uint256",
          "name": "timestamp",
          "type": "uint256"
        }
      ],
      "name": "ProductCreated",
      "type": "event"
    },
    {
      "anonymous": false,
      "inputs": [
        {
          "indexed": true,
          "internalType": "string",
          "name": "internalPO",
          "type": "string"
        },
        {
          "indexed": false,
          "internalType": "string",
          "name": "unit",
          "type": "string"
        },
        {
          "indexed": false,
          "internalType": "string",
          "name": "newStatus",
          "type": "string"
        },
        {
          "indexed": false,
          "internalType": "uint256",
          "name": "timestamp",
          "type": "uint256"
        }
      ],
      "name": "UnitStatusUpdated",
      "type": "event"
    },
    {
      "inputs": [
        {
          "internalType": "string",
          "name": "_externalPO",
          "type": "string"
        },
        {
          "internalType": "string",
          "name": "_internalPO",
          "type": "string"
        },
        {
          "internalType": "string",
          "name": "_productName",
          "type": "string"
        },
        {
          "internalType": "string",
          "name": "_companyName",
          "type": "string"
        },
        {
          "internalType": "string",
          "name": "_fileHash",
          "type": "string"
        },
        {
          "internalType": "string[]",
          "name": "_units",
          "type": "string[]"
        }
      ],
      "name": "createProduct",
      "outputs": [],
      "stateMutability": "nonpayable",
      "type": "function"
    },
    {
      "inputs": [
        {
          "internalType": "string",
          "name": "_internalPO",
          "type": "string"
        }
      ],
      "name": "getProductUnits",
      "outputs": [
        {
          "internalType": "string[]",
          "name": "",
          "type": "string[]"
        }
      ],
      "stateMutability": "view",
      "type": "function",
      "constant": true
    },
    {
      "inputs": [
        {
          "internalType": "string",
          "name": "_internalPO",
          "type": "string"
        }
      ],
      "name": "getProductDetails",
      "outputs": [
        {
          "internalType": "string",
          "name": "externalPO",
          "type": "string"
        },
        {
          "internalType": "string",
          "name": "productName",
          "type": "string"
        },
        {
          "internalType": "string",
          "name": "companyName",
          "type": "string"
        },
        {
          "internalType": "string",
          "name": "fileHash",
          "type": "string"
        },
        {
          "internalType": "bool",
          "name": "isCompleted",
          "type": "bool"
        },
        {
          "internalType": "uint256",
          "name": "unitsCount",
          "type": "uint256"
        }
      ],
      "stateMutability": "view",
      "type": "function",
      "constant": true
    },
    {
      "inputs": [
        {
          "internalType": "string",
          "name": "_internalPO",
          "type": "string"
        },
        {
          "internalType": "string",
          "name": "_unit",
          "type": "string"
        }
      ],
      "name": "getUnitStatus",
      "outputs": [
        {
          "internalType": "string",
          "name": "",
          "type": "string"
        }
      ],
      "stateMutability": "view",
      "type": "function",
      "constant": true
    },
    {
      "inputs": [
        {
          "internalType": "string",
          "name": "_internalPO",
          "type": "string"
        },
        {
          "internalType": "string",
          "name": "_unit",
          "type": "string"
        }
      ],
      "name": "getUnitTimestamp",
      "outputs": [
        {
          "internalType": "uint256",
          "name": "",
          "type": "uint256"
        }
      ],
      "stateMutability": "view",
      "type": "function",
      "constant": true
    },
    {
      "inputs": [
        {
          "internalType": "string",
          "name": "_internalPO",
          "type": "string"
        },
        {
          "internalType": "string",
          "name": "_unit",
          "type": "string"
        },
        {
          "internalType": "string",
          "name": "_newStatus",
          "type": "string"
        }
      ],
      "name": "updateUnitStatus",
      "outputs": [],
      "stateMutability": "nonpayable",
      "type": "function"
    },
    {
      "inputs": [
        {
          "internalType": "string",
          "name": "_internalPO",
          "type": "string"
        }
      ],
      "name": "checkProductCompletion",
      "outputs": [
        {
          "internalType": "bool",
          "name": "",
          "type": "bool"
        }
      ],
      "stateMutability": "nonpayable",
      "type": "function"
    },
    {
      "inputs": [],
      "name": "getAllProductKeys",
      "outputs": [
        {
          "internalType": "string[]",
          "name": "",
          "type": "string[]"
        }
      ],
      "stateMutability": "view",
      "type": "function",
      "constant": true
    }
  ],
  "bytecode": "0x6080604052348015600f57600080fd5b506118058061001f6000396000f3fe608060405234801561001057600080fd5b50600436106100885760003560e01c8063a80fcfb31161005b578063a80fcfb31461011f578063d02b468214610134578063e2d3dddc14610149578063e5c0aaf81461015c57600080fd5b8063198c59b01461008d57806333b2f300146100bb57806334fb1483146100dc57806386a9c4a1146100ff575b600080fd5b6100a061009b3660046110e7565b61016f565b6040516100b296959493929190611173565b60405180910390f35b6100ce6100c93660046111d6565b610458565b6040519081526020016100b2565b6100ef6100ea3660046110e7565b61054f565b60405190151581526020016100b2565b61011261010d3660046111d6565b61071c565b6040516100b2919061123d565b6101276108c6565b6040516100b291906112ac565b6101476101423660046112bf565b61099f565b005b6101276101573660046110e7565b610b5a565b61014761016a3660046113f6565b610ca0565b606080606080600080600080886040516101899190611506565b908152602001604051809103902060010180546101a590611522565b9050116101cd5760405162461bcd60e51b81526004016101c49061155c565b60405180910390fd5b600080886040516101de9190611506565b908152604051908190036020019020600881015460058201548254929350839260028401926003850192600486019260ff90921691869061021e90611522565b80601f016020809104026020016040519081016040528092919081815260200182805461024a90611522565b80156102975780601f1061026c57610100808354040283529160200191610297565b820191906000526020600020905b81548152906001019060200180831161027a57829003601f168201915b505050505095508480546102aa90611522565b80601f01602080910402602001604051908101604052809291908181526020018280546102d690611522565b80156103235780601f106102f857610100808354040283529160200191610323565b820191906000526020600020905b81548152906001019060200180831161030657829003601f168201915b5050505050945083805461033690611522565b80601f016020809104026020016040519081016040528092919081815260200182805461036290611522565b80156103af5780601f10610384576101008083540402835291602001916103af565b820191906000526020600020905b81548152906001019060200180831161039257829003601f168201915b505050505093508280546103c290611522565b80601f01602080910402602001604051908101604052809291908181526020018280546103ee90611522565b801561043b5780601f106104105761010080835404028352916020019161043b565b820191906000526020600020905b81548152906001019060200180831161041e57829003601f168201915b505050505092509650965096509650965096505091939550919395565b60008060008460405161046b9190611506565b9081526020016040518091039020600101805461048790611522565b9050116104a65760405162461bcd60e51b81526004016101c49061155c565b600080846040516104b79190611506565b9081526020016040518091039020600701836040516104d69190611506565b9081526020016040518091039020549050806000036105485760405162461bcd60e51b815260206004820152602860248201527f556e697420646f6573206e6f74206578697374206f722074696d657374616d70604482015267081b9bdd081cd95d60c21b60648201526084016101c4565b9392505050565b6000806000836040516105629190611506565b9081526020016040518091039020600101805461057e90611522565b90501161059d5760405162461bcd60e51b81526004016101c49061155c565b600080836040516105ae9190611506565b9081526040519081900360200190209050600160005b60058301548110156107035760008360050182815481106105e7576105e761158c565b9060005260206000200180546105fc90611522565b80601f016020809104026020016040519081016040528092919081815260200182805461062890611522565b80156106755780601f1061064a57610100808354040283529160200191610675565b820191906000526020600020905b81548152906001019060200180831161065857829003601f168201915b50506040805180820182526004815263646f6e6560e01b602090910152519394507f2d9fff2a7ab727ab3a0b82110e010fa1f0255381ea4e3bdfd2157c31836189ae936006890193506106cb9250859150611506565b9081526040519081900360200181206106e3916115a2565b6040518091039020146106fa576000925050610703565b506001016105c4565b50600891909101805460ff191682151517905592915050565b60606000808460405161072f9190611506565b9081526020016040518091039020600101805461074b90611522565b90501161076a5760405162461bcd60e51b81526004016101c49061155c565b6000808460405161077b9190611506565b90815260200160405180910390206006018360405161079a9190611506565b908152602001604051809103902080546107b390611522565b9050116107f85760405162461bcd60e51b8152602060048201526013602482015272155b9a5d08191bd95cc81b9bdd08195e1a5cdd606a1b60448201526064016101c4565b6000836040516108089190611506565b9081526020016040518091039020600601826040516108279190611506565b9081526020016040518091039020805461084090611522565b80601f016020809104026020016040519081016040528092919081815260200182805461086c90611522565b80156108b95780601f1061088e576101008083540402835291602001916108b9565b820191906000526020600020905b81548152906001019060200180831161089c57829003601f168201915b5050505050905092915050565b60606001805480602002602001604051908101604052809291908181526020016000905b8282101561099657838290600052602060002001805461090990611522565b80601f016020809104026020016040519081016040528092919081815260200182805461093590611522565b80156109825780601f1061095757610100808354040283529160200191610982565b820191906000526020600020905b81548152906001019060200180831161096557829003601f168201915b5050505050815260200190600101906108ea565b50505050905090565b600080846040516109b09190611506565b908152602001604051809103902060010180546109cc90611522565b9050116109eb5760405162461bcd60e51b81526004016101c49061155c565b600080846040516109fc9190611506565b908152602001604051809103902060060183604051610a1b9190611506565b90815260200160405180910390208054610a3490611522565b905011610a795760405162461bcd60e51b8152602060048201526013602482015272155b9a5d08191bd95cc81b9bdd08195e1a5cdd606a1b60448201526064016101c4565b80600084604051610a8a9190611506565b908152602001604051809103902060060183604051610aa99190611506565b90815260200160405180910390209081610ac39190611666565b5042600084604051610ad59190611506565b908152602001604051809103902060070183604051610af49190611506565b90815260405190819003602001812091909155610b12908490611506565b60405180910390207fa47f501a63e02af5df0a9d572bb3ab29ac70e42e21206d4b8a0eef0ea9fbf492838342604051610b4d93929190611724565b60405180910390a2505050565b606060008083604051610b6d9190611506565b90815260200160405180910390206001018054610b8990611522565b905011610ba85760405162461bcd60e51b81526004016101c49061155c565b600082604051610bb89190611506565b9081526020016040518091039020600501805480602002602001604051908101604052809291908181526020016000905b82821015610c95578382906000526020600020018054610c0890611522565b80601f0160208091040260200160405190810160405280929190818152602001828054610c3490611522565b8015610c815780601f10610c5657610100808354040283529160200191610c81565b820191906000526020600020905b815481529060010190602001808311610c6457829003601f168201915b505050505081526020019060010190610be9565b505050509050919050565b6000855111610cf15760405162461bcd60e51b815260206004820152601b60248201527f496e7465726e616c20504f2063616e6e6f7420626520656d707479000000000060448201526064016101c4565b600085604051610d019190611506565b90815260200160405180910390206001018054610d1d90611522565b159050610d655760405162461bcd60e51b815260206004820152601660248201527550726f6475637420616c72656164792065786973747360501b60448201526064016101c4565b6000815111610dc15760405162461bcd60e51b815260206004820152602260248201527f4174206c65617374206f6e6520756e6974206d7573742062652070726f766964604482015261195960f21b60648201526084016101c4565b60008086604051610dd29190611506565b908152604051908190036020019020905080610dee8882611666565b5060018101610dfd8782611666565b5060028101610e0c8682611666565b5060038101610e1b8582611666565b5060048101610e2a8482611666565b5060088101805460ff1916905560005b8251811015610f95576000838281518110610e5757610e5761158c565b60200260200101515111610ead5760405162461bcd60e51b815260206004820152601960248201527f556e6974206e616d652063616e6e6f7420626520656d7074790000000000000060448201526064016101c4565b81600501838281518110610ec357610ec361158c565b60209081029190910181015182546001810184556000938452919092200190610eec9082611666565b5060405180604001604052806005815260200164746f2d646f60d81b81525082600601848381518110610f2157610f2161158c565b6020026020010151604051610f369190611506565b90815260200160405180910390209081610f509190611666565b504282600701848381518110610f6857610f6861158c565b6020026020010151604051610f7d9190611506565b90815260405190819003602001902055600101610e3a565b506001805480820182556000919091527fb10e2d527612073b26eecdfd717e6a320cf44b4afac2b0732d9fcbe2b7fa0cf601610fd18782611666565b5085604051610fe09190611506565b60405180910390207f9f9532c27a33d146750f42cb8bdf6c332ec75c3b1452f92fa3005bc6d0da91ae8887878787426040516110219695949392919061175a565b60405180910390a250505050505050565b634e487b7160e01b600052604160045260246000fd5b604051601f8201601f191681016001600160401b038111828210171561107057611070611032565b604052919050565b600082601f83011261108957600080fd5b81356001600160401b038111156110a2576110a2611032565b6110b5601f8201601f1916602001611048565b8181528460208386010111156110ca57600080fd5b816020850160208301376000918101602001919091529392505050565b6000602082840312156110f957600080fd5b81356001600160401b0381111561110f57600080fd5b61111b84828501611078565b949350505050565b60005b8381101561113e578181015183820152602001611126565b50506000910152565b6000815180845261115f816020860160208601611123565b601f01601f19169290920160200192915050565b60c08152600061118660c0830189611147565b82810360208401526111988189611147565b905082810360408401526111ac8188611147565b905082810360608401526111c08187611147565b9415156080840152505060a00152949350505050565b600080604083850312156111e957600080fd5b82356001600160401b038111156111ff57600080fd5b61120b85828601611078565b92505060208301356001600160401b0381111561122757600080fd5b61123385828601611078565b9150509250929050565b6020815260006105486020830184611147565b600082825180855260208501945060208160051b8301016020850160005b838110156112a057601f1985840301885261128a838351611147565b602098890198909350919091019060010161126e565b50909695505050505050565b6020815260006105486020830184611250565b6000806000606084860312156112d457600080fd5b83356001600160401b038111156112ea57600080fd5b6112f686828701611078565b93505060208401356001600160401b0381111561131257600080fd5b61131e86828701611078565b92505060408401356001600160401b0381111561133a57600080fd5b61134686828701611078565b9150509250925092565b600082601f83011261136157600080fd5b81356001600160401b0381111561137a5761137a611032565b8060051b61138a60208201611048565b918252602081850181019290810190868411156113a657600080fd5b6020860192505b838310156113ec5782356001600160401b038111156113cb57600080fd5b6113da886020838a0101611078565b835250602092830192909101906113ad565b9695505050505050565b60008060008060008060c0878903121561140f57600080fd5b86356001600160401b0381111561142557600080fd5b61143189828a01611078565b96505060208701356001600160401b0381111561144d57600080fd5b61145989828a01611078565b95505060408701356001600160401b0381111561147557600080fd5b61148189828a01611078565b94505060608701356001600160401b0381111561149d57600080fd5b6114a989828a01611078565b93505060808701356001600160401b038111156114c557600080fd5b6114d189828a01611078565b92505060a08701356001600160401b038111156114ed57600080fd5b6114f989828a01611350565b9150509295509295509295565b60008251611518818460208701611123565b9190910192915050565b600181811c9082168061153657607f821691505b60208210810361155657634e487b7160e01b600052602260045260246000fd5b50919050565b602080825260169082015275141c9bd91d58dd08191bd95cc81b9bdd08195e1a5cdd60521b604082015260600190565b634e487b7160e01b600052603260045260246000fd5b60008083546115b081611522565b6001821680156115c757600181146115dc5761160c565b60ff198316865281151582028601935061160c565b86600052602060002060005b83811015611604578154888201526001909101906020016115e8565b505081860193505b509195945050505050565b601f82111561166157806000526020600020601f840160051c8101602085101561163e5750805b601f840160051c820191505b8181101561165e576000815560010161164a565b50505b505050565b81516001600160401b0381111561167f5761167f611032565b6116938161168d8454611522565b84611617565b6020601f8211600181146116c757600083156116af5750848201515b600019600385901b1c1916600184901b17845561165e565b600084815260208120601f198516915b828110156116f757878501518255602094850194600190920191016116d7565b50848210156117155786840151600019600387901b60f8161c191681555b50505050600190811b01905550565b6060815260006117376060830186611147565b82810360208401526117498186611147565b915050826040830152949350505050565b60c08152600061176d60c0830189611147565b828103602084015261177f8189611147565b905082810360408401526117938188611147565b905082810360608401526117a78187611147565b905082810360808401526117bb8186611250565b9150508260a083015297965050505050505056fea264697066735822122051f4d8f52424387f5690214841fcc78353a47ff01db5bba67c0cbe448e23d81364736f6c634300081c0033",
  "immutableReferences": {},
  "source": "// SPDX-License-Identifier: MIT\r\npragma solidity ^0.8.0;\r\n\r\ncontract ProductRegistry {\r\n    struct Product {\r\n        string externalPO;\r\n        string internalPO;\r\n        string productName;\r\n        string companyName;\r\n        string fileHash;\r\n        string[] units; // List of units\r\n        mapping(string => string) unitStatus; // Status of each unit\r\n        mapping(string => uint256) timestamps; // Timestamp for each unit\r\n        bool isCompleted; // Tracks if the product is completed\r\n    }\r\n\r\n    mapping(string => Product) private products; // Store products by internal PO\r\n    string[] private productKeys; // Track all product keys\r\n\r\n    // Events\r\n    event ProductCreated(\r\n        string indexed internalPO,\r\n        string externalPO,\r\n        string productName,\r\n        string companyName,\r\n        string fileHash,\r\n        string[] units,\r\n        uint256 timestamp\r\n    );\r\n\r\n    event UnitStatusUpdated(\r\n        string indexed internalPO,\r\n        string unit,\r\n        string newStatus,\r\n        uint256 timestamp\r\n    );\r\n\r\n    // Create a new product\r\n    function createProduct(\r\n        string memory _externalPO,\r\n        string memory _internalPO,\r\n        string memory _productName,\r\n        string memory _companyName,\r\n        string memory _fileHash,\r\n        string[] memory _units\r\n    ) public {\r\n        require(bytes(_internalPO).length > 0, \"Internal PO cannot be empty\");\r\n        require(bytes(products[_internalPO].internalPO).length == 0, \"Product already exists\");\r\n        require(_units.length > 0, \"At least one unit must be provided\");\r\n\r\n        Product storage newProduct = products[_internalPO];\r\n        newProduct.externalPO = _externalPO;\r\n        newProduct.internalPO = _internalPO;\r\n        newProduct.productName = _productName;\r\n        newProduct.companyName = _companyName;\r\n        newProduct.fileHash = _fileHash;\r\n        newProduct.isCompleted = false;\r\n\r\n        // Initialize units with \"to-do\" status\r\n        for (uint i = 0; i < _units.length; i++) {\r\n            require(bytes(_units[i]).length > 0, \"Unit name cannot be empty\");\r\n            newProduct.units.push(_units[i]);\r\n            newProduct.unitStatus[_units[i]] = \"to-do\";\r\n            newProduct.timestamps[_units[i]] = block.timestamp;\r\n        }\r\n\r\n        productKeys.push(_internalPO);\r\n\r\n        emit ProductCreated(\r\n            _internalPO,\r\n            _externalPO,\r\n            _productName,\r\n            _companyName,\r\n            _fileHash,\r\n            _units,\r\n            block.timestamp\r\n        );\r\n    }\r\n\r\n    // Retrieve units of a product\r\n    function getProductUnits(string memory _internalPO) public view returns (string[] memory) {\r\n        require(bytes(products[_internalPO].internalPO).length > 0, \"Product does not exist\");\r\n        return products[_internalPO].units;\r\n    }\r\n\r\n    // Retrieve details of a product\r\n    function getProductDetails(string memory _internalPO) public view returns (\r\n        string memory externalPO,\r\n        string memory productName,\r\n        string memory companyName,\r\n        string memory fileHash,\r\n        bool isCompleted,\r\n        uint unitsCount\r\n    ) {\r\n        require(bytes(products[_internalPO].internalPO).length > 0, \"Product does not exist\");\r\n        Product storage product = products[_internalPO];\r\n\r\n        return (\r\n            product.externalPO,\r\n            product.productName,\r\n            product.companyName,\r\n            product.fileHash,\r\n            product.isCompleted,\r\n            product.units.length\r\n        );\r\n    }\r\n\r\n    // Get the status of a specific unit\r\n    function getUnitStatus(string memory _internalPO, string memory _unit) public view returns (string memory) {\r\n        require(bytes(products[_internalPO].internalPO).length > 0, \"Product does not exist\");\r\n        require(bytes(products[_internalPO].unitStatus[_unit]).length > 0, \"Unit does not exist\");\r\n        return products[_internalPO].unitStatus[_unit];\r\n    }\r\n\r\n    // Get the timestamp of a specific unit\r\n    function getUnitTimestamp(string memory _internalPO, string memory _unit) public view returns (uint256) {\r\n        require(bytes(products[_internalPO].internalPO).length > 0, \"Product does not exist\");\r\n        uint256 timestamp = products[_internalPO].timestamps[_unit];\r\n        require(timestamp != 0, \"Unit does not exist or timestamp not set\");\r\n        return timestamp;\r\n    }\r\n\r\n    // Update the status of a unit\r\n    function updateUnitStatus(string memory _internalPO, string memory _unit, string memory _newStatus) public {\r\n        require(bytes(products[_internalPO].internalPO).length > 0, \"Product does not exist\");\r\n        require(bytes(products[_internalPO].unitStatus[_unit]).length > 0, \"Unit does not exist\");\r\n\r\n        products[_internalPO].unitStatus[_unit] = _newStatus;\r\n        products[_internalPO].timestamps[_unit] = block.timestamp;\r\n\r\n        emit UnitStatusUpdated(_internalPO, _unit, _newStatus, block.timestamp);\r\n    }\r\n\r\n    // Check if all units are done and update product completion status\r\n    function checkProductCompletion(string memory _internalPO) public returns (bool) {\r\n        require(bytes(products[_internalPO].internalPO).length > 0, \"Product does not exist\");\r\n        \r\n        Product storage product = products[_internalPO];\r\n        bool allDone = true;\r\n        \r\n        for (uint i = 0; i < product.units.length; i++) {\r\n            string memory unit = product.units[i];\r\n            if (keccak256(bytes(product.unitStatus[unit])) != keccak256(bytes(\"done\"))) {\r\n                allDone = false;\r\n                break;\r\n            }\r\n        }\r\n        \r\n        product.isCompleted = allDone;\r\n        return allDone;\r\n    }\r\n\r\n    // Get all product keys (useful for listing all products)\r\n    function getAllProductKeys() public view returns (string[] memory) {\r\n        return productKeys;\r\n    }\r\n}",
  "sourcePath": "C:\\Users\\sim\\Documents\\Ip_tracking\\Innovation_Practices\\react-app\\contracts\\ProductRegistry.sol",
  "compiler": {
    "name": "solc",
    "version": "0.8.28+commit.7893614a.Emscripten.clang"
  },
  "schemaVersion": "3.4.16",
  "updatedAt": "2025-03-22T16:20:05.657Z",
  "networkType": "ethereum",
  "devdoc": {
    "kind": "dev",
    "methods": {},
    "version": 1
  },
  "userdoc": {
    "kind": "user",
    "methods": {},
    "version": 1
  }
}