{
  "contractName": "ProductRegistry",
  "abi": [
    {
      "anonymous": false,
      "inputs": [
        {
          "indexed": true,
          "internalType": "string",
          "name": "internalPO",
          "type": "string"
        },
        {
          "indexed": false,
          "internalType": "string",
          "name": "externalPO",
          "type": "string"
        },
        {
          "indexed": false,
          "internalType": "string",
          "name": "productName",
          "type": "string"
        },
        {
          "indexed": false,
          "internalType": "string",
          "name": "companyName",
          "type": "string"
        },
        {
          "indexed": false,
          "internalType": "string",
          "name": "fileHash",
          "type": "string"
        },
        {
          "indexed": false,
          "internalType": "string[]",
          "name": "units",
          "type": "string[]"
        },
        {
          "indexed": false,
          "internalType": "uint256",
          "name": "timestamp",
          "type": "uint256"
        }
      ],
      "name": "ProductCreated",
      "type": "event"
    },
    {
      "anonymous": false,
      "inputs": [
        {
          "indexed": true,
          "internalType": "string",
          "name": "internalPO",
          "type": "string"
        },
        {
          "indexed": false,
          "internalType": "string",
          "name": "unit",
          "type": "string"
        },
        {
          "indexed": false,
          "internalType": "string",
          "name": "status",
          "type": "string"
        },
        {
          "indexed": false,
          "internalType": "uint256",
          "name": "timestamp",
          "type": "uint256"
        }
      ],
      "name": "UnitUpdated",
      "type": "event"
    },
    {
      "inputs": [
        {
          "internalType": "string",
          "name": "_externalPO",
          "type": "string"
        },
        {
          "internalType": "string",
          "name": "_internalPO",
          "type": "string"
        },
        {
          "internalType": "string",
          "name": "_productName",
          "type": "string"
        },
        {
          "internalType": "string",
          "name": "_companyName",
          "type": "string"
        },
        {
          "internalType": "string",
          "name": "_fileHash",
          "type": "string"
        },
        {
          "internalType": "string[]",
          "name": "_units",
          "type": "string[]"
        }
      ],
      "name": "createProduct",
      "outputs": [],
      "stateMutability": "nonpayable",
      "type": "function"
    },
    {
      "inputs": [
        {
          "internalType": "string",
          "name": "_internalPO",
          "type": "string"
        }
      ],
      "name": "getProductUnits",
      "outputs": [
        {
          "internalType": "string[]",
          "name": "",
          "type": "string[]"
        }
      ],
      "stateMutability": "view",
      "type": "function",
      "constant": true
    },
    {
      "inputs": [
        {
          "internalType": "string",
          "name": "_internalPO",
          "type": "string"
        }
      ],
      "name": "getProductDetails",
      "outputs": [
        {
          "internalType": "string",
          "name": "externalPO",
          "type": "string"
        },
        {
          "internalType": "string",
          "name": "productName",
          "type": "string"
        },
        {
          "internalType": "string",
          "name": "companyName",
          "type": "string"
        },
        {
          "internalType": "string",
          "name": "fileHash",
          "type": "string"
        },
        {
          "internalType": "bool",
          "name": "isCompleted",
          "type": "bool"
        },
        {
          "internalType": "uint256",
          "name": "unitsCount",
          "type": "uint256"
        }
      ],
      "stateMutability": "view",
      "type": "function",
      "constant": true
    },
    {
      "inputs": [
        {
          "internalType": "string",
          "name": "_internalPO",
          "type": "string"
        },
        {
          "internalType": "string",
          "name": "_unit",
          "type": "string"
        }
      ],
      "name": "getUnitStatus",
      "outputs": [
        {
          "internalType": "string",
          "name": "",
          "type": "string"
        }
      ],
      "stateMutability": "view",
      "type": "function",
      "constant": true
    },
    {
      "inputs": [
        {
          "internalType": "string",
          "name": "_internalPO",
          "type": "string"
        },
        {
          "internalType": "string",
          "name": "_unit",
          "type": "string"
        }
      ],
      "name": "getUnitTimestamp",
      "outputs": [
        {
          "internalType": "uint256",
          "name": "",
          "type": "uint256"
        }
      ],
      "stateMutability": "view",
      "type": "function",
      "constant": true
    }
  ],
  "bytecode": "0x6080604052348015600f57600080fd5b506111f98061001f6000396000f3fe608060405234801561001057600080fd5b50600436106100575760003560e01c8063198c59b01461005c57806333b2f3001461008a57806386a9c4a1146100ab578063e2d3dddc146100cb578063e5c0aaf8146100eb575b600080fd5b61006f61006a366004610c17565b610100565b60405161008196959493929190610ca3565b60405180910390f35b61009d610098366004610d06565b6103e9565b604051908152602001610081565b6100be6100b9366004610d06565b6104e0565b6040516100819190610d6d565b6100de6100d9366004610c17565b61068a565b6040516100819190610ddc565b6100fe6100f9366004610e95565b6107d0565b005b6060806060806000806000808860405161011a9190610fa5565b9081526020016040518091039020600101805461013690610fc1565b90501161015e5760405162461bcd60e51b815260040161015590610ffb565b60405180910390fd5b6000808860405161016f9190610fa5565b908152604051908190036020019020600881015460058201548254929350839260028401926003850192600486019260ff9092169186906101af90610fc1565b80601f01602080910402602001604051908101604052809291908181526020018280546101db90610fc1565b80156102285780601f106101fd57610100808354040283529160200191610228565b820191906000526020600020905b81548152906001019060200180831161020b57829003601f168201915b5050505050955084805461023b90610fc1565b80601f016020809104026020016040519081016040528092919081815260200182805461026790610fc1565b80156102b45780601f10610289576101008083540402835291602001916102b4565b820191906000526020600020905b81548152906001019060200180831161029757829003601f168201915b505050505094508380546102c790610fc1565b80601f01602080910402602001604051908101604052809291908181526020018280546102f390610fc1565b80156103405780601f1061031557610100808354040283529160200191610340565b820191906000526020600020905b81548152906001019060200180831161032357829003601f168201915b5050505050935082805461035390610fc1565b80601f016020809104026020016040519081016040528092919081815260200182805461037f90610fc1565b80156103cc5780601f106103a1576101008083540402835291602001916103cc565b820191906000526020600020905b8154815290600101906020018083116103af57829003601f168201915b505050505092509650965096509650965096505091939550919395565b6000806000846040516103fc9190610fa5565b9081526020016040518091039020600101805461041890610fc1565b9050116104375760405162461bcd60e51b815260040161015590610ffb565b600080846040516104489190610fa5565b9081526020016040518091039020600701836040516104679190610fa5565b9081526020016040518091039020549050806000036104d95760405162461bcd60e51b815260206004820152602860248201527f556e697420646f6573206e6f74206578697374206f722074696d657374616d70604482015267081b9bdd081cd95d60c21b6064820152608401610155565b9392505050565b6060600080846040516104f39190610fa5565b9081526020016040518091039020600101805461050f90610fc1565b90501161052e5760405162461bcd60e51b815260040161015590610ffb565b6000808460405161053f9190610fa5565b90815260200160405180910390206006018360405161055e9190610fa5565b9081526020016040518091039020805461057790610fc1565b9050116105bc5760405162461bcd60e51b8152602060048201526013602482015272155b9a5d08191bd95cc81b9bdd08195e1a5cdd606a1b6044820152606401610155565b6000836040516105cc9190610fa5565b9081526020016040518091039020600601826040516105eb9190610fa5565b9081526020016040518091039020805461060490610fc1565b80601f016020809104026020016040519081016040528092919081815260200182805461063090610fc1565b801561067d5780601f106106525761010080835404028352916020019161067d565b820191906000526020600020905b81548152906001019060200180831161066057829003601f168201915b5050505050905092915050565b60606000808360405161069d9190610fa5565b908152602001604051809103902060010180546106b990610fc1565b9050116106d85760405162461bcd60e51b815260040161015590610ffb565b6000826040516106e89190610fa5565b9081526020016040518091039020600501805480602002602001604051908101604052809291908181526020016000905b828210156107c557838290600052602060002001805461073890610fc1565b80601f016020809104026020016040519081016040528092919081815260200182805461076490610fc1565b80156107b15780601f10610786576101008083540402835291602001916107b1565b820191906000526020600020905b81548152906001019060200180831161079457829003601f168201915b505050505081526020019060010190610719565b505050509050919050565b60008551116108215760405162461bcd60e51b815260206004820152601b60248201527f496e7465726e616c20504f2063616e6e6f7420626520656d70747900000000006044820152606401610155565b6000856040516108319190610fa5565b9081526020016040518091039020600101805461084d90610fc1565b1590506108955760405162461bcd60e51b815260206004820152601660248201527550726f6475637420616c72656164792065786973747360501b6044820152606401610155565b60008151116108f15760405162461bcd60e51b815260206004820152602260248201527f4174206c65617374206f6e6520756e6974206d7573742062652070726f766964604482015261195960f21b6064820152608401610155565b600080866040516109029190610fa5565b90815260405190819003602001902090508061091e888261107a565b506001810161092d878261107a565b506002810161093c868261107a565b506003810161094b858261107a565b506004810161095a848261107a565b5060088101805460ff1916905560005b8251811015610ac557600083828151811061098757610987611138565b602002602001015151116109dd5760405162461bcd60e51b815260206004820152601960248201527f556e6974206e616d652063616e6e6f7420626520656d707479000000000000006044820152606401610155565b816005018382815181106109f3576109f3611138565b60209081029190910181015182546001810184556000938452919092200190610a1c908261107a565b5060405180604001604052806005815260200164746f2d646f60d81b81525082600601848381518110610a5157610a51611138565b6020026020010151604051610a669190610fa5565b90815260200160405180910390209081610a80919061107a565b504282600701848381518110610a9857610a98611138565b6020026020010151604051610aad9190610fa5565b9081526040519081900360200190205560010161096a565b506001805480820182556000919091527fb10e2d527612073b26eecdfd717e6a320cf44b4afac2b0732d9fcbe2b7fa0cf601610b01878261107a565b5085604051610b109190610fa5565b60405180910390207f9f9532c27a33d146750f42cb8bdf6c332ec75c3b1452f92fa3005bc6d0da91ae888787878742604051610b519695949392919061114e565b60405180910390a250505050505050565b634e487b7160e01b600052604160045260246000fd5b604051601f8201601f191681016001600160401b0381118282101715610ba057610ba0610b62565b604052919050565b600082601f830112610bb957600080fd5b81356001600160401b03811115610bd257610bd2610b62565b610be5601f8201601f1916602001610b78565b818152846020838601011115610bfa57600080fd5b816020850160208301376000918101602001919091529392505050565b600060208284031215610c2957600080fd5b81356001600160401b03811115610c3f57600080fd5b610c4b84828501610ba8565b949350505050565b60005b83811015610c6e578181015183820152602001610c56565b50506000910152565b60008151808452610c8f816020860160208601610c53565b601f01601f19169290920160200192915050565b60c081526000610cb660c0830189610c77565b8281036020840152610cc88189610c77565b90508281036040840152610cdc8188610c77565b90508281036060840152610cf08187610c77565b9415156080840152505060a00152949350505050565b60008060408385031215610d1957600080fd5b82356001600160401b03811115610d2f57600080fd5b610d3b85828601610ba8565b92505060208301356001600160401b03811115610d5757600080fd5b610d6385828601610ba8565b9150509250929050565b6020815260006104d96020830184610c77565b600082825180855260208501945060208160051b8301016020850160005b83811015610dd057601f19858403018852610dba838351610c77565b6020988901989093509190910190600101610d9e565b50909695505050505050565b6020815260006104d96020830184610d80565b600082601f830112610e0057600080fd5b81356001600160401b03811115610e1957610e19610b62565b8060051b610e2960208201610b78565b91825260208185018101929081019086841115610e4557600080fd5b6020860192505b83831015610e8b5782356001600160401b03811115610e6a57600080fd5b610e79886020838a0101610ba8565b83525060209283019290910190610e4c565b9695505050505050565b60008060008060008060c08789031215610eae57600080fd5b86356001600160401b03811115610ec457600080fd5b610ed089828a01610ba8565b96505060208701356001600160401b03811115610eec57600080fd5b610ef889828a01610ba8565b95505060408701356001600160401b03811115610f1457600080fd5b610f2089828a01610ba8565b94505060608701356001600160401b03811115610f3c57600080fd5b610f4889828a01610ba8565b93505060808701356001600160401b03811115610f6457600080fd5b610f7089828a01610ba8565b92505060a08701356001600160401b03811115610f8c57600080fd5b610f9889828a01610def565b9150509295509295509295565b60008251610fb7818460208701610c53565b9190910192915050565b600181811c90821680610fd557607f821691505b602082108103610ff557634e487b7160e01b600052602260045260246000fd5b50919050565b602080825260169082015275141c9bd91d58dd08191bd95cc81b9bdd08195e1a5cdd60521b604082015260600190565b601f82111561107557806000526020600020601f840160051c810160208510156110525750805b601f840160051c820191505b81811015611072576000815560010161105e565b50505b505050565b81516001600160401b0381111561109357611093610b62565b6110a7816110a18454610fc1565b8461102b565b6020601f8211600181146110db57600083156110c35750848201515b600019600385901b1c1916600184901b178455611072565b600084815260208120601f198516915b8281101561110b57878501518255602094850194600190920191016110eb565b50848210156111295786840151600019600387901b60f8161c191681555b50505050600190811b01905550565b634e487b7160e01b600052603260045260246000fd5b60c08152600061116160c0830189610c77565b82810360208401526111738189610c77565b905082810360408401526111878188610c77565b9050828103606084015261119b8187610c77565b905082810360808401526111af8186610d80565b9150508260a083015297965050505050505056fea264697066735822122052849b59c03a0b3d8d2b84f08fb39d77446cc362148005f5fa8ffecfe7b749ae64736f6c634300081c0033",
  "immutableReferences": {},
  "source": "// SPDX-License-Identifier: MIT\r\npragma solidity ^0.8.0;\r\n\r\ncontract ProductRegistry {\r\n    struct Product {\r\n        string externalPO;\r\n        string internalPO;\r\n        string productName;\r\n        string companyName;\r\n        string fileHash;\r\n        string[] units; // Dynamic array of units\r\n        mapping(string => string) unitStatus; // Status of each unit\r\n        mapping(string => uint256) timestamps; // Timestamp for each unit\r\n        bool isCompleted;\r\n    }\r\n\r\n    mapping(string => Product) private products;\r\n    string[] private productKeys;\r\n\r\n    event ProductCreated(\r\n        string indexed internalPO,\r\n        string externalPO,\r\n        string productName,\r\n        string companyName,\r\n        string fileHash,\r\n        string[] units,\r\n        uint256 timestamp\r\n    );\r\n    event UnitUpdated(\r\n        string indexed internalPO,\r\n        string unit,\r\n        string status,\r\n        uint256 timestamp\r\n    );\r\n\r\n    function createProduct(\r\n        string memory _externalPO,\r\n        string memory _internalPO,\r\n        string memory _productName,\r\n        string memory _companyName,\r\n        string memory _fileHash,\r\n        string[] memory _units\r\n    ) public {\r\n        require(bytes(_internalPO).length > 0, \"Internal PO cannot be empty\");\r\n        require(bytes(products[_internalPO].internalPO).length == 0, \"Product already exists\");\r\n        require(_units.length > 0, \"At least one unit must be provided\");\r\n\r\n        Product storage newProduct = products[_internalPO];\r\n        newProduct.externalPO = _externalPO;\r\n        newProduct.internalPO = _internalPO;\r\n        newProduct.productName = _productName;\r\n        newProduct.companyName = _companyName;\r\n        newProduct.fileHash = _fileHash;\r\n        newProduct.isCompleted = false;\r\n\r\n        // Store units\r\n        for (uint i = 0; i < _units.length; i++) {\r\n            require(bytes(_units[i]).length > 0, \"Unit name cannot be empty\");\r\n            newProduct.units.push(_units[i]);\r\n            newProduct.unitStatus[_units[i]] = \"to-do\";\r\n            newProduct.timestamps[_units[i]] = block.timestamp;\r\n        }\r\n\r\n        productKeys.push(_internalPO);\r\n\r\n        emit ProductCreated(\r\n            _internalPO,\r\n            _externalPO,\r\n            _productName,\r\n            _companyName,\r\n            _fileHash,\r\n            _units,\r\n            block.timestamp\r\n        );\r\n    }\r\n    \r\n    // Getter for units\r\n    function getProductUnits(string memory _internalPO) public view returns (string[] memory) {\r\n        require(bytes(products[_internalPO].internalPO).length > 0, \"Product does not exist\");\r\n        return products[_internalPO].units;\r\n    }\r\n    \r\n    // Getter for product details\r\n    function getProductDetails(string memory _internalPO) public view returns (\r\n        string memory externalPO,\r\n        string memory productName,\r\n        string memory companyName,\r\n        string memory fileHash,\r\n        bool isCompleted,\r\n        uint unitsCount\r\n    ) {\r\n        require(bytes(products[_internalPO].internalPO).length > 0, \"Product does not exist\");\r\n        Product storage product = products[_internalPO];\r\n        \r\n        return (\r\n            product.externalPO,\r\n            product.productName,\r\n            product.companyName,\r\n            product.fileHash,\r\n            product.isCompleted,\r\n            product.units.length\r\n        );\r\n    }\r\n    \r\n    // Getter for unit status\r\n    function getUnitStatus(string memory _internalPO, string memory _unit) public view returns (string memory) {\r\n        require(bytes(products[_internalPO].internalPO).length > 0, \"Product does not exist\");\r\n        require(bytes(products[_internalPO].unitStatus[_unit]).length > 0, \"Unit does not exist\");\r\n        return products[_internalPO].unitStatus[_unit];\r\n    }\r\n    \r\n    // New getter for unit timestamp\r\n    function getUnitTimestamp(string memory _internalPO, string memory _unit) public view returns (uint256) {\r\n        require(bytes(products[_internalPO].internalPO).length > 0, \"Product does not exist\");\r\n        uint256 timestamp = products[_internalPO].timestamps[_unit];\r\n        require(timestamp != 0, \"Unit does not exist or timestamp not set\");\r\n        return timestamp;\r\n    }\r\n}",
  "sourcePath": "C:\\Users\\sim\\Documents\\Ip_tracking\\Innovation_Practices\\react-app\\contracts\\ProductRegistry.sol",
  "compiler": {
    "name": "solc",
    "version": "0.8.28+commit.7893614a.Emscripten.clang"
  },
  "schemaVersion": "3.4.16",
  "updatedAt": "2025-03-22T14:07:02.953Z",
  "networkType": "ethereum",
  "devdoc": {
    "kind": "dev",
    "methods": {},
    "version": 1
  },
  "userdoc": {
    "kind": "user",
    "methods": {},
    "version": 1
  }
}