{
  "contractName": "ProductRegistry",
  "abi": [
    {
      "anonymous": false,
      "inputs": [
        {
          "indexed": true,
          "internalType": "string",
          "name": "internalPO",
          "type": "string"
        },
        {
          "indexed": false,
          "internalType": "string",
          "name": "externalPO",
          "type": "string"
        },
        {
          "indexed": false,
          "internalType": "string",
          "name": "productName",
          "type": "string"
        },
        {
          "indexed": false,
          "internalType": "string",
          "name": "companyName",
          "type": "string"
        },
        {
          "indexed": false,
          "internalType": "string",
          "name": "fileHash",
          "type": "string"
        },
        {
          "indexed": false,
          "internalType": "string[]",
          "name": "units",
          "type": "string[]"
        },
        {
          "indexed": false,
          "internalType": "uint256",
          "name": "timestamp",
          "type": "uint256"
        }
      ],
      "name": "ProductCreated",
      "type": "event"
    },
    {
      "anonymous": false,
      "inputs": [
        {
          "indexed": true,
          "internalType": "string",
          "name": "internalPO",
          "type": "string"
        },
        {
          "indexed": false,
          "internalType": "string",
          "name": "unit",
          "type": "string"
        },
        {
          "indexed": false,
          "internalType": "string",
          "name": "status",
          "type": "string"
        },
        {
          "indexed": false,
          "internalType": "uint256",
          "name": "timestamp",
          "type": "uint256"
        }
      ],
      "name": "UnitUpdated",
      "type": "event"
    },
    {
      "inputs": [
        {
          "internalType": "string",
          "name": "_externalPO",
          "type": "string"
        },
        {
          "internalType": "string",
          "name": "_internalPO",
          "type": "string"
        },
        {
          "internalType": "string",
          "name": "_productName",
          "type": "string"
        },
        {
          "internalType": "string",
          "name": "_companyName",
          "type": "string"
        },
        {
          "internalType": "string",
          "name": "_fileHash",
          "type": "string"
        },
        {
          "internalType": "string[]",
          "name": "_units",
          "type": "string[]"
        }
      ],
      "name": "createProduct",
      "outputs": [],
      "stateMutability": "nonpayable",
      "type": "function"
    },
    {
      "inputs": [
        {
          "internalType": "string",
          "name": "_internalPO",
          "type": "string"
        }
      ],
      "name": "getProductUnits",
      "outputs": [
        {
          "internalType": "string[]",
          "name": "",
          "type": "string[]"
        }
      ],
      "stateMutability": "view",
      "type": "function",
      "constant": true
    },
    {
      "inputs": [
        {
          "internalType": "string",
          "name": "_internalPO",
          "type": "string"
        }
      ],
      "name": "getProductDetails",
      "outputs": [
        {
          "internalType": "string",
          "name": "externalPO",
          "type": "string"
        },
        {
          "internalType": "string",
          "name": "productName",
          "type": "string"
        },
        {
          "internalType": "string",
          "name": "companyName",
          "type": "string"
        },
        {
          "internalType": "string",
          "name": "fileHash",
          "type": "string"
        },
        {
          "internalType": "bool",
          "name": "isCompleted",
          "type": "bool"
        },
        {
          "internalType": "uint256",
          "name": "unitsCount",
          "type": "uint256"
        }
      ],
      "stateMutability": "view",
      "type": "function",
      "constant": true
    },
    {
      "inputs": [
        {
          "internalType": "string",
          "name": "_internalPO",
          "type": "string"
        },
        {
          "internalType": "string",
          "name": "_unit",
          "type": "string"
        }
      ],
      "name": "getUnitStatus",
      "outputs": [
        {
          "internalType": "string",
          "name": "",
          "type": "string"
        }
      ],
      "stateMutability": "view",
      "type": "function",
      "constant": true
    }
  ],
  "bytecode": "0x6080604052348015600f57600080fd5b506110dd8061001f6000396000f3fe608060405234801561001057600080fd5b506004361061004c5760003560e01c8063198c59b01461005157806386a9c4a11461007f578063e2d3dddc1461009f578063e5c0aaf8146100bf575b600080fd5b61006461005f366004610af4565b6100d4565b60405161007696959493929190610b80565b60405180910390f35b61009261008d366004610be3565b6103bd565b6040516100769190610c4a565b6100b26100ad366004610af4565b610567565b6040516100769190610cc0565b6100d26100cd366004610d79565b6106ad565b005b606080606080600080600080886040516100ee9190610e89565b9081526020016040518091039020600101805461010a90610ea5565b9050116101325760405162461bcd60e51b815260040161012990610edf565b60405180910390fd5b600080886040516101439190610e89565b908152604051908190036020019020600881015460058201548254929350839260028401926003850192600486019260ff90921691869061018390610ea5565b80601f01602080910402602001604051908101604052809291908181526020018280546101af90610ea5565b80156101fc5780601f106101d1576101008083540402835291602001916101fc565b820191906000526020600020905b8154815290600101906020018083116101df57829003601f168201915b5050505050955084805461020f90610ea5565b80601f016020809104026020016040519081016040528092919081815260200182805461023b90610ea5565b80156102885780601f1061025d57610100808354040283529160200191610288565b820191906000526020600020905b81548152906001019060200180831161026b57829003601f168201915b5050505050945083805461029b90610ea5565b80601f01602080910402602001604051908101604052809291908181526020018280546102c790610ea5565b80156103145780601f106102e957610100808354040283529160200191610314565b820191906000526020600020905b8154815290600101906020018083116102f757829003601f168201915b5050505050935082805461032790610ea5565b80601f016020809104026020016040519081016040528092919081815260200182805461035390610ea5565b80156103a05780601f10610375576101008083540402835291602001916103a0565b820191906000526020600020905b81548152906001019060200180831161038357829003601f168201915b505050505092509650965096509650965096505091939550919395565b6060600080846040516103d09190610e89565b908152602001604051809103902060010180546103ec90610ea5565b90501161040b5760405162461bcd60e51b815260040161012990610edf565b6000808460405161041c9190610e89565b90815260200160405180910390206006018360405161043b9190610e89565b9081526020016040518091039020805461045490610ea5565b9050116104995760405162461bcd60e51b8152602060048201526013602482015272155b9a5d08191bd95cc81b9bdd08195e1a5cdd606a1b6044820152606401610129565b6000836040516104a99190610e89565b9081526020016040518091039020600601826040516104c89190610e89565b908152602001604051809103902080546104e190610ea5565b80601f016020809104026020016040519081016040528092919081815260200182805461050d90610ea5565b801561055a5780601f1061052f5761010080835404028352916020019161055a565b820191906000526020600020905b81548152906001019060200180831161053d57829003601f168201915b5050505050905092915050565b60606000808360405161057a9190610e89565b9081526020016040518091039020600101805461059690610ea5565b9050116105b55760405162461bcd60e51b815260040161012990610edf565b6000826040516105c59190610e89565b9081526020016040518091039020600501805480602002602001604051908101604052809291908181526020016000905b828210156106a257838290600052602060002001805461061590610ea5565b80601f016020809104026020016040519081016040528092919081815260200182805461064190610ea5565b801561068e5780601f106106635761010080835404028352916020019161068e565b820191906000526020600020905b81548152906001019060200180831161067157829003601f168201915b5050505050815260200190600101906105f6565b505050509050919050565b60008551116106fe5760405162461bcd60e51b815260206004820152601b60248201527f496e7465726e616c20504f2063616e6e6f7420626520656d70747900000000006044820152606401610129565b60008560405161070e9190610e89565b9081526020016040518091039020600101805461072a90610ea5565b1590506107725760405162461bcd60e51b815260206004820152601660248201527550726f6475637420616c72656164792065786973747360501b6044820152606401610129565b60008151116107ce5760405162461bcd60e51b815260206004820152602260248201527f4174206c65617374206f6e6520756e6974206d7573742062652070726f766964604482015261195960f21b6064820152608401610129565b600080866040516107df9190610e89565b9081526040519081900360200190209050806107fb8882610f5e565b506001810161080a8782610f5e565b50600281016108198682610f5e565b50600381016108288582610f5e565b50600481016108378482610f5e565b5060088101805460ff1916905560005b82518110156109a25760008382815181106108645761086461101c565b602002602001015151116108ba5760405162461bcd60e51b815260206004820152601960248201527f556e6974206e616d652063616e6e6f7420626520656d707479000000000000006044820152606401610129565b816005018382815181106108d0576108d061101c565b602090810291909101810151825460018101845560009384529190922001906108f99082610f5e565b5060405180604001604052806005815260200164746f2d646f60d81b8152508260060184838151811061092e5761092e61101c565b60200260200101516040516109439190610e89565b9081526020016040518091039020908161095d9190610f5e565b5042826007018483815181106109755761097561101c565b602002602001015160405161098a9190610e89565b90815260405190819003602001902055600101610847565b506001805480820182556000919091527fb10e2d527612073b26eecdfd717e6a320cf44b4afac2b0732d9fcbe2b7fa0cf6016109de8782610f5e565b50856040516109ed9190610e89565b60405180910390207f9f9532c27a33d146750f42cb8bdf6c332ec75c3b1452f92fa3005bc6d0da91ae888787878742604051610a2e96959493929190611032565b60405180910390a250505050505050565b634e487b7160e01b600052604160045260246000fd5b604051601f8201601f191681016001600160401b0381118282101715610a7d57610a7d610a3f565b604052919050565b600082601f830112610a9657600080fd5b81356001600160401b03811115610aaf57610aaf610a3f565b610ac2601f8201601f1916602001610a55565b818152846020838601011115610ad757600080fd5b816020850160208301376000918101602001919091529392505050565b600060208284031215610b0657600080fd5b81356001600160401b03811115610b1c57600080fd5b610b2884828501610a85565b949350505050565b60005b83811015610b4b578181015183820152602001610b33565b50506000910152565b60008151808452610b6c816020860160208601610b30565b601f01601f19169290920160200192915050565b60c081526000610b9360c0830189610b54565b8281036020840152610ba58189610b54565b90508281036040840152610bb98188610b54565b90508281036060840152610bcd8187610b54565b9415156080840152505060a00152949350505050565b60008060408385031215610bf657600080fd5b82356001600160401b03811115610c0c57600080fd5b610c1885828601610a85565b92505060208301356001600160401b03811115610c3457600080fd5b610c4085828601610a85565b9150509250929050565b602081526000610c5d6020830184610b54565b9392505050565b600082825180855260208501945060208160051b8301016020850160005b83811015610cb457601f19858403018852610c9e838351610b54565b6020988901989093509190910190600101610c82565b50909695505050505050565b602081526000610c5d6020830184610c64565b600082601f830112610ce457600080fd5b81356001600160401b03811115610cfd57610cfd610a3f565b8060051b610d0d60208201610a55565b91825260208185018101929081019086841115610d2957600080fd5b6020860192505b83831015610d6f5782356001600160401b03811115610d4e57600080fd5b610d5d886020838a0101610a85565b83525060209283019290910190610d30565b9695505050505050565b60008060008060008060c08789031215610d9257600080fd5b86356001600160401b03811115610da857600080fd5b610db489828a01610a85565b96505060208701356001600160401b03811115610dd057600080fd5b610ddc89828a01610a85565b95505060408701356001600160401b03811115610df857600080fd5b610e0489828a01610a85565b94505060608701356001600160401b03811115610e2057600080fd5b610e2c89828a01610a85565b93505060808701356001600160401b03811115610e4857600080fd5b610e5489828a01610a85565b92505060a08701356001600160401b03811115610e7057600080fd5b610e7c89828a01610cd3565b9150509295509295509295565b60008251610e9b818460208701610b30565b9190910192915050565b600181811c90821680610eb957607f821691505b602082108103610ed957634e487b7160e01b600052602260045260246000fd5b50919050565b602080825260169082015275141c9bd91d58dd08191bd95cc81b9bdd08195e1a5cdd60521b604082015260600190565b601f821115610f5957806000526020600020601f840160051c81016020851015610f365750805b601f840160051c820191505b81811015610f565760008155600101610f42565b50505b505050565b81516001600160401b03811115610f7757610f77610a3f565b610f8b81610f858454610ea5565b84610f0f565b6020601f821160018114610fbf5760008315610fa75750848201515b600019600385901b1c1916600184901b178455610f56565b600084815260208120601f198516915b82811015610fef5787850151825560209485019460019092019101610fcf565b508482101561100d5786840151600019600387901b60f8161c191681555b50505050600190811b01905550565b634e487b7160e01b600052603260045260246000fd5b60c08152600061104560c0830189610b54565b82810360208401526110578189610b54565b9050828103604084015261106b8188610b54565b9050828103606084015261107f8187610b54565b905082810360808401526110938186610c64565b9150508260a083015297965050505050505056fea26469706673582212203aba7b3ddcfbbcb35f4d2ee4ee838da9f1e0ca13a07dc414bddb9ee3050c294664736f6c634300081c0033",
  "immutableReferences": {},
  "source": "// SPDX-License-Identifier: MIT\r\npragma solidity ^0.8.0;\r\n\r\ncontract ProductRegistry {\r\n    struct Product {\r\n        string externalPO;\r\n        string internalPO;\r\n        string productName;\r\n        string companyName;\r\n        string fileHash;\r\n        string[] units; // Dynamic array of units\r\n        mapping(string => string) unitStatus; // Status of each unit\r\n        mapping(string => uint256) timestamps; // Timestamp for each unit\r\n        bool isCompleted;\r\n    }\r\n\r\n    mapping(string => Product) private products;\r\n    string[] private productKeys;\r\n\r\n    event ProductCreated(\r\n        string indexed internalPO,\r\n        string externalPO,\r\n        string productName,\r\n        string companyName,\r\n        string fileHash,\r\n        string[] units,\r\n        uint256 timestamp\r\n    );\r\n    event UnitUpdated(\r\n        string indexed internalPO,\r\n        string unit,\r\n        string status,\r\n        uint256 timestamp\r\n    );\r\n\r\n    function createProduct(\r\n        string memory _externalPO,\r\n        string memory _internalPO,\r\n        string memory _productName,\r\n        string memory _companyName,\r\n        string memory _fileHash,\r\n        string[] memory _units\r\n    ) public {\r\n        require(bytes(_internalPO).length > 0, \"Internal PO cannot be empty\");\r\n        require(bytes(products[_internalPO].internalPO).length == 0, \"Product already exists\");\r\n        require(_units.length > 0, \"At least one unit must be provided\");\r\n\r\n        Product storage newProduct = products[_internalPO];\r\n        newProduct.externalPO = _externalPO;\r\n        newProduct.internalPO = _internalPO;\r\n        newProduct.productName = _productName;\r\n        newProduct.companyName = _companyName;\r\n        newProduct.fileHash = _fileHash;\r\n        newProduct.isCompleted = false;\r\n\r\n        // Store units\r\n        for (uint i = 0; i < _units.length; i++) {\r\n            require(bytes(_units[i]).length > 0, \"Unit name cannot be empty\");\r\n            newProduct.units.push(_units[i]);\r\n            newProduct.unitStatus[_units[i]] = \"to-do\";\r\n            newProduct.timestamps[_units[i]] = block.timestamp;\r\n        }\r\n\r\n        productKeys.push(_internalPO);\r\n\r\n        // Emit detailed event for debugging\r\n        emit ProductCreated(\r\n            _internalPO,\r\n            _externalPO,\r\n            _productName,\r\n            _companyName,\r\n            _fileHash,\r\n            _units,\r\n            block.timestamp\r\n        );\r\n    }\r\n    \r\n    // Getter for units\r\n    function getProductUnits(string memory _internalPO) public view returns (string[] memory) {\r\n        require(bytes(products[_internalPO].internalPO).length > 0, \"Product does not exist\");\r\n        return products[_internalPO].units;\r\n    }\r\n    \r\n    // Getter for product details\r\n    function getProductDetails(string memory _internalPO) public view returns (\r\n        string memory externalPO,\r\n        string memory productName,\r\n        string memory companyName,\r\n        string memory fileHash,\r\n        bool isCompleted,\r\n        uint unitsCount\r\n    ) {\r\n        require(bytes(products[_internalPO].internalPO).length > 0, \"Product does not exist\");\r\n        Product storage product = products[_internalPO];\r\n        \r\n        return (\r\n            product.externalPO,\r\n            product.productName,\r\n            product.companyName,\r\n            product.fileHash,\r\n            product.isCompleted,\r\n            product.units.length\r\n        );\r\n    }\r\n    \r\n    // Getter for unit status\r\n    function getUnitStatus(string memory _internalPO, string memory _unit) public view returns (string memory) {\r\n        require(bytes(products[_internalPO].internalPO).length > 0, \"Product does not exist\");\r\n        require(bytes(products[_internalPO].unitStatus[_unit]).length > 0, \"Unit does not exist\");\r\n        return products[_internalPO].unitStatus[_unit];\r\n    }\r\n}",
  "sourcePath": "C:\\Users\\sim\\Documents\\Ip_tracking\\Innovation_Practices\\react-app\\contracts\\ProductRegistry.sol",
  "compiler": {
    "name": "solc",
    "version": "0.8.28+commit.7893614a.Emscripten.clang"
  },
  "schemaVersion": "3.4.16",
  "updatedAt": "2025-03-22T13:07:46.943Z",
  "networkType": "ethereum",
  "devdoc": {
    "kind": "dev",
    "methods": {},
    "version": 1
  },
  "userdoc": {
    "kind": "user",
    "methods": {},
    "version": 1
  }
}